:100000000C9446000C945D000C945D000C945D0013
:100010000C945D000C945D000C945D000C945D00EC
:100020000C945D000C945D000C945D000C945D00DC
:100030000C945D000C945D000C945D000C945D00CC
:100040000C945D000C945D000C945D000C945D00BC
:100050000C945D000C945D000C945D000C945D00AC
:100060000C945D000C945D000C945D000C945D009C
:100070000C945D000C945D000C945D000C945D008C
:100080000C945D000C945D000C945D0011241FBE67
:10009000CFEFD0E1DEBFCDBF11E0A0E0B1E0E8E9F5
:1000A000F4E000E00BBF02C007900D92AA30B10748
:1000B000D9F70E9430020C944A020C94000087B3D6
:1000C000876087BB80E58DB908958FB9779BFECF98
:1000D0008FB1089591980895919A089581B386609B
:1000E00081BB8B980E946C0092980C945F00EF92F9
:1000F000FF920F931F93CF93DF9300D01F92CDB742
:10010000DEB7162F4A837B8389830E946A00898128
:100110000E946500082FE12E7B81F72E4A81140F83
:100120001E1539F08FEF0E946500F70181937F0162
:10013000F7CF0E946C00802F0F900F900F90DF91EF
:10014000CF911F910F91FF90EF900895EF92FF9242
:100150000F931F93CF93DF9300D01F92CDB7DEB7DD
:10016000162F4A837B8389830E946A0089810E94BB
:100170006500082FE12E7B81F72E4A81140F1E1592
:1001800031F0F70181917F010E946500F8CF0E9454
:100190006C00802F0F900F900F90DF91CF911F91E7
:1001A0000F91FF90EF900895CF93DF931F92CDB7FB
:1001B000DEB789830E946A0089818F710E94650081
:1001C0008FEF0E94650089830E946C0089810F90E7
:1001D000DF91CF9108951F93CF93DF9300D0CDB7D8
:1001E000DEB76A8389830E946A0089818F71806289
:1001F0000E946500182F6A81862F0E9465000E9468
:100200006C00812F0F900F90DF91CF911F91089577
:100210008F710C9477008F7180620C94A600CF933D
:10022000DF931F92CDB7DEB70E946A0080E60E947E
:1002300065008FEF0E94650089830E946C008981B0
:100240000F90DF91CF910895CF93DF931F92CDB799
:10025000DEB789830E946A0089810E9465008983D4
:100260000E946C0089810F90DF91CF91089590B327
:10027000937081E009F080E008951F93CF93DF939E
:10028000CDB7DEB72A970FB6F894DEBF0FBECDBF4D
:1002900085E0E0E0F1E0DE01169601900D928A958E
:1002A000E1F785E0E5E0F1E0DE01119601900D92C5
:1002B0008A95E1F7929815E66DE080E00E94EB00E8
:1002C00080E00E94D4008D3051F0115009F44FC0ED
:1002D0008FEC97E00197F1F700C00000EDCF62E0EE
:1002E00081E00E94EB0063E082E00E94EB0063E0AB
:1002F00083E00E94EB0062E084E00E94EB0063E098
:1003000085E00E94EB0066E086E00E94EB0045E09D
:10031000BE016F5F7F4F8AE00E940B0145E0BE0186
:100320006F5F7F4F80E10E940B0145E0BE016A5F75
:100330007F4F8BE00E940B0160E081E10E94EB00A7
:1003400060E282E10E94EB0063E08CE10E94EB003E
:1003500064E08DE10E94EB006FE080E00E94EB0022
:1003600080E00E94D40011E08F3009F010E0812F6E
:100370002A960FB6F894DEBF0FBECDBFDF91CF91A6
:100380001F910895FF920F931F93CF93DF931F92B6
:10039000CDB7DEB78C01929880E069830E94D400CB
:1003A000F82E982F9C7F692F626080E00E94EB00FE
:1003B000498180FD13C0F1FC06C08FE99FE00197E1
:1003C000F1F700C00000B80180EA0E94A600929AEE
:1003D00098E29A95F1F7929881E001C080E00F9041
:1003E000DF91CF911F910F91FF900895CF93DF93ED
:1003F0000E943701882389F18FEF0E942401C82FC2
:10040000682F87E00E94EB008C2F8073C1F0C4FF3F
:1004100003C081EE0E94240187E10E94D40084FD84
:1004200006C0929A88E28A95F1F7929808C080E017
:100430000E94D400682F6D7F80E00E94EB00D5E021
:10044000CE70CE3051F0D15041F082EE0E942401A6
:100450008FEF0E942401C82FF3CFDF91CF91089531
:100460000E946E000E943D0181110AC02FEF89E6B3
:1004700098E1215080409040E1F700C00000F2CFA9
:100480008FE99FE00197F1F700C00000929A0E9467
:08049000F601FDCFF894FFCF47
:0A049800E7E7E7E7E7C2C2C2C2C20D
:00000001FF
